:0300000002001CDF
:03001900020003DF
:0300030002001CDC
:11001C007F00EF90003193F5840FBF640040F380EFC4
:20003100FE1E3D5D7C9BB9D7F30F29435B71869AACBCCBD8E3EBF2F7FAFCFAF7F2EBE3D8B7
:20005100CBBCAC9A86715B43290FF3D7B99B7C5D3D1EFEDDBE9E7F60422408ECD2B8A08A7F
:2000710075614F3F3023181009040100010409101823303F4F61758AA0B8D2EC0824426027
:040091007F9EBEDDB3
:06001300E478FFF6D8FDC1
:0D00060075810712002DE5826003020003E2
:04002D0075820022B6
:00000001FF
